:1000000000308A00C52800002230840083130008D5
:10001000031917280630F800F701F70B0D28F80B25
:100020000C287B30F700F70B1328800B0A280800F8
:100030008316081083120810831688108312881004
:1000400083160811831208118316881183128811F0
:100050000800A1012108023C031C47288316081050
:1000600083120814831688108312881483160811CB
:10007000831208158316881183128815FA30A2009E
:1000800004201820FA30A2000420A10A2A28A00186
:100090000800831606168312061E64282030F70017
:1000A000F70B502853280000831686148312861CF1
:1000B0005B2863286228831686178312861F6228AE
:1000C0002920632854287028831686178312861FD8
:1000D00070282030F700F70B6B286E2800002920CD
:1000E0000800831688118312881183160810831262
:1000F0000814FA30A20004204920FA30A20004209B
:100100004920200B84288528C228831608108312D2
:1001100008108316881083128814FA30A200042075
:100120004920FA30A20004204920200B9828992861
:10013000C228831688108312881083160811831230
:100140000815FA30A20004204920FA30A200042049
:100150004920200BAC28AD28C22883160811831231
:1001600008118316881183128815FA30A200042022
:100170004920FA30A20004204920200BC028C128C1
:10018000C22871288A110A12E92803081F3983003E
:100190000130A00083161F149F141F159F110730F4
:1001A0009C008313FF308600860183128601003095
:1001B00083168800880183128801831686148312AF
:1001C000861CEA282030F700F70BE428E728000017
:1001D0007128F628831686178312861FF62820308A
:1001E000F700F70BF128F42800002920182001302F
:0601F000A000DD28630001
:02400E00323F3F
:00000001FF
;PIC16F877A
;CRC=E86E  CREATED="19-Nov-20 20:54"
