:1000000001308A005C290000FF00030E8301A1007B
:100010000A08A0008A010408A2007708A300780853
:10002000A4007908A5007A08A600831383128C30F7
:100030008400801D1D288C192E2822088400230886
:10004000F7002408F8002508F9002608FA0020081F
:100050008A00210E8300FF0E7F0E09008A110A120A
:10006000E0280F3083160805F03888008312081541
:100070000000081400000808F700080E0F39F80007
:100080007808BD0008100000081446284728000022
:100090000808F700080E0F39F8007808BC000810AF
:1000A0000F3083160805880083123D0EF700F030EC
:1000B000F70577083C04F80008003D0EF039F7001A
:1000C0000F30080577048800000008140230F7009C
:1000D000F70B68286B28000008100800831608102A
:1000E000881008118312881031207808BC00BC1BCE
:1000F00074283A1C88103A1888140000081100006F
:1001000008103B0EBC000F30BC053C08BD005D2054
:100110003B080F39BC00BD005D200800370B91285B
:1001200094284030B8009528B80101303602B8074D
:1001300038088038B900BA013908BB006E200800C1
:1001400036308400831300080319B3280630F80002
:10015000F701F70BA928F80BA8287B30F700F70B5D
:10016000AF28800BA62808003508073A0319C228D3
:100170000B3A0319C728063A0319CF28023A031984
:10018000D528DA280130B600B7008E20DF28BA0162
:100190000130BB006E200230B600A020DF28013005
:1001A000B6000230B7008E20DF28BA011030BB0045
:1001B0006E20DF280130BA003508BB006E20080031
:1001C0008316140C031CE12883121308A8002808C6
:1001D000413C031DF3280C30B500B4208316880180
:1001E00083128801F6282808B500B4208C118A11E2
:1001F0000A121D282830AB000C30AC000130AD00D5
:100200000630AE000810881008110F30831608055C
:1002100088000810881008118312A7018B1BA717EC
:100220008B130F30B600A020A71B8B170130AA003C
:100230002A08033C031C3029A7018B1BA7178B132B
:100240000330BD005D20A71B8B17A7018B1BA717D1
:100250008B130530B600A020A71B8B17AA0A1829FC
:10026000A7018B1BA7178B130230BD005D20A71BB6
:100270008B17A7018B1BA7178B130530B600A02087
:10028000A71B8B17AA012A08033C031C59292B30F2
:100290002A07840083130008AF00A7018B1BA71750
:1002A0008B13BA012F08BB006E20A71B8B17AA0A5D
:1002B00043298A110A12752903081F398300FF3068
:1002C000A90083161F149F141F159F1107309C004F
:1002D00083131F149F141F159F150030F8008312FD
:1002E0001F08C73978049F00FA289412A912290818
:1002F0008316870083122916290883168700831224
:10030000A915290883168700253083129400003030
:10031000831694008C15C03083128B048E296300E1
:02400E00323F3F
:00000001FF
;PIC16F877A
;CRC=8BCE  CREATED="04-Jan-21 02:42"
