:1000000003308A008E2B0000FF00030E8301A10045
:100010000A08A0008A010408A2007708A300780853
:10002000A4007908A5007A08A600831383120B1E8A
:100030001B288B182C28220884002308F70024088A
:10004000F8002508F9002608FA0020088A00210E89
:100050008300FF0E7F0E09008A110A122F28B008B4
:1000600003193428003035280130B000AE01AD014D
:10007000AC01AB01AA01A901A801A7010130B1009F
:100080008B108A110A121B283B308400831300084E
:10009000031957280630F800F701F70B4D28F80B25
:1000A0004C287B30F700F70B5328800B4A280800B8
:1000B00083160910831209103A0893008316140C52
:1000C000031C5F281030F700F70B642800000910AC
:1000D000831209140A30BB00442008003B08C20008
:1000E0003F08C206C21F792803110310BB1B03146B
:1000F000AC283B08C2003E08C3003A08C3020319FB
:100100008728C21FAC280308013A8300AC283F08A7
:10011000C3003B08C30203199328C21FAC2803087D
:10012000013A8300AC284008C3003C08C30203190D
:100130009F28C21FAC280308013A8300AC2841085D
:10014000C3003D08C3020319AB28C21FAC28030833
:10015000013A8300AC2803100800390803191D294F
:10016000C1003D0803191D29C1070318BE287F30AF
:10017000C102031C1D2903191D29C2288130C10792
:1001800003181D294108F700F801F901FA013A089E
:10019000C500C5173B08C4003C08C3001830C100A7
:1001A000C201431CEB284008FA07031CDD28F90AAA
:1001B000031DDD28F80A0319C2173F08F907031CBD
:1001C000E428F80A0319C2173E08BB00BB173B0816
:1001D000F8070318C217C20DF80CF90CFA0CC50C7D
:1001E000C40CC30C0310C10BD0280130F70703184F
:1001F0001D29F81B0229C50DFA0DF90DF80DF7039D
:1002000003191D29C51F1329FA0A031D1329F90A09
:10021000031D1329F80A031D1329F80CF90CFA0C15
:10022000F70A03191D293A08C2003E08C206C21F78
:100230001B29F8172129F8132129F701F801F901E1
:10024000FA01080080308318BE06C301C4013A08D1
:10025000C2003E08C20639080319122AC100F7007D
:100260003D0803191B2AC1020319B729031C75296C
:100270003E08C700C7173F08C6004008C500C401B4
:100280000310C70CC60CC50CC40CC10B3F29C21F00
:100290004C2943142F2A4310411043163C3084004C
:1002A0008313442A4312C21B5F29411C6A29C70CCD
:1002B000C60CC50CC40CF70A03192A2A6A29C71BE5
:1002C0006D290310C40DC50DC60DC70DF703031925
:1002D0002A2A5F294317D72943133A08C200C21FAD
:1002E0007329C717232AC713232A3D08C100F70023
:1002F0003908C1023A08C700C7173B08C6003C08C6
:10030000C500C4010310C70CC60CC50CC40CC10B3E
:100310008129C21F8E29C3142F2AC3104110C3166E
:10032000403084008313442AC312C21BA129411CFC
:10033000AC29C70CC60CC50CC40CF70A03192A2A31
:10034000AC29C71BAF290310C40DC50DC60DC70DC1
:10035000F70303192A2AA129C317D729C3133E0873
:10036000C200C21FB529C717232AC713232A3E0874
:10037000C700C7173F08C6004008C500C21FC429F0
:10038000C71343152F2A4311C40141103C30840088
:100390008313442AC21BED293A08C200411CD72905
:1003A000C70CC60CC50CC40CF70A03192A2AC41FB3
:1003B000E829C50A031DE829C60A031DE829C70A5A
:1003C000031DE829C70CC60CC50CF70A03192A2A15
:1003D000431B6C29C31BAE290C2A8030C706C71FDC
:1003E000F5292F2A3E08C200022A3A08C200C7088F
:1003F000031D022AC608031D022AC508031D022A7E
:10040000F701232AC71B0C2A0310C40DC50DC60D06
:10041000C70DF70B022A2A2AC21F102AC717232A40
:10042000C713232A3D08F7003E08C7003F08C6004F
:100430004008C500232A3908F7003A08C7003B08DE
:10044000C6003C08C5004708F8004608F900450802
:10045000FA00622AF701F801F901FA01622AC401DF
:10046000C509C609C709C409C40A031D3D2AC50A2E
:10047000031D3D2AC60A0319C70A43184B29C3188E
:100480008D294319C329F2290008C507031C4E2AE8
:10049000C60A031D4E2AC70A031941148403000823
:1004A000C607031C562AC70A03194114840300080F
:1004B000801F803AC70703184114431A5229C31AF0
:1004C0009429CA29080039080319282BC5003D08BA
:1004D0000319282BC502031C722A7F30C507031895
:1004E000282B782A8130C502031C282B0319282BBE
:1004F0004508F700F801F901FA01C4013A08C30000
:10050000C3173B08C2003C08C1001930C5004008B1
:10051000C10203189B2A0130C20203189B2AC3029E
:1005200003189B2AC40203189B2AC40AC30AC20ADE
:100530004008C107CD2A3F08C2020318B62A01307D
:10054000C3020318B62AC4020318B62AC40AC30A8F
:100550003F08C2074008C107031CCD2AC20A031D79
:10056000CD2AC30A031DCD2AC40ACD2A3E088038ED
:10057000C3020318CC2A0130C4020318CC2AC40ACF
:100580003E088038C3073F08C207031CAA2AC30AD3
:10059000031DAA2AC40AAA2A7A14C50BD02ADB2A68
:1005A0000310C10DC20DC30DC40D0310FA0DF90DDA
:1005B000F80DC60D872A461CE32A0310F80CF90C27
:1005C000FA0CC60CE62AF7030319282BC61B0F2BBF
:1005D0000310C10DC20DC30DC40D4008C1020318A4
:1005E000FB2A0130C2020318FB2AC3020318FB2AAC
:1005F000C402031C1E2B3F08C2020318062B013045
:10060000C3020318062BC402031C1E2B3E088038AD
:10061000C30203180F2B0130C402031C1E2BFA0A5D
:10062000031D1E2BF90A031D1E2BF80A031D1E2B8A
:10063000F70A0319282BF80CF90CFA0C3A08C50034
:100640003E08C506C51F262BF8172C2BF8132C2B9C
:10065000F701F801F901FA010800F701F80139087A
:1006600003103A18F707F70CF80CBA18F707F70C4D
:10067000F80C3A19F707F70CF80CBA19F707F70C4A
:10068000F80C3A1AF707F70CF80CBA1AF707F70C38
:10069000F80C3A1BF707F70CF80CBA1BF707F70C26
:1006A000F80C08008E30F7003B08F8003A08F90013
:1006B000FA01F808031D662B7908F800F9010830E3
:1006C000F702F808031D662BF7016E2B0310F81BC9
:1006D0006D2BF90DF80DF703662BF81308008E301B
:1006E000F7003908F7023A08F9003B08F800F91753
:1006F000F7080319862B0310F908031D822BF8084D
:100700000319862BF90CF80CF70B7B2BBA1F8D2BDA
:10071000F809F909F80A0319F90A080003081F394A
:100720008300AA01A901A801A701AE01AD01AC0196
:10073000AB012F30AF00B001B101FF30B200831622
:100740001F149F141F159F1107309C0083131F1047
:100750009F101F119F110030F80083121F08C73926
:1007600078049F009412B212320883168700831215
:1007700032163208831687008312B21132088316AC
:100780008700213083129400003083169400C83013
:100790008312BB004420F030831688008801831246
:1007A00088018316011783120B16C0308B04B00822
:1007B0000319E52BB1080319E12B3030BA0058209A
:1007C000B1018A1500288A11E82B4130BA0058205F
:0407D000D72B6300C0
:101000008316081083120814831608168312081E0C
:101010006E282A08BD002908BC002808BB00270844
:10102000BA00C101C001BF01BE018A116E208A153C
:10103000031D30282E08BD002D08BC002C08BB0065
:101040002B08BA00C101C001BF01BE018A116E2088
:101050008A15031D30280C30BA008A1158208A15D1
:101060002A08BC002908BB002808BA002708B900D4
:10107000C001BF012030BE008230BD008A11AD200A
:101080008A157A08AA007908A9007808A8007708C4
:10109000A70083102A08BC002908BB002808BA0052
:1010A0002708B900C001BF016030BE008130BD001B
:1010B0008A1122218A157A08AA007908A9007808DD
:1010C000A8007708A7003730BA008A1158208A157F
:1010D000FA30BB008A1144208A156F2983168816BE
:1010E0008312881ED7282A08BD002908BC002808BA
:1010F000BB002708BA00C101C001BF01BE018A11AF
:101100006E208A15031D9A282E08BD002D08BC00EC
:101110002C08BB002B08BA00C101C001BF01BE01F1
:101120008A116E208A15031D9A280C30BA008A1184
:1011300058208A152A08BC002908BB002808BA00D4
:101140002708B900C001BF012030BE008230BD00B9
:101150008A11AD208A157A08AA007908A9007808B2
:10116000A8007708A70083102A08BC002908BB0044
:101170002808BA002708B900C001BF01BE018230AB
:10118000BD008A1122218A157A08AA007908A900CF
:101190007808A8007708A7003830BA008A115820CC
:1011A0008A15FA30BB008A1144208A156F298316EC
:1011B00008178312081F41292A08BD002908BC000E
:1011C0002808BB002708BA00C101C001BF01BE0149
:1011D0008A116E208A15031D03292E08BD002D08D3
:1011E000BC002C08BB002B08BA00C101C001BF0124
:1011F000BE018A116E208A15031D03290C30BA0026
:101200008A1158208A152A08BC002908BB00280822
:10121000BA002708B900C001BF012030BE008230EB
:10122000BD008A11AD208A157A08AA007908A900A4
:101230007808A8007708A70083102A08BC002908AE
:10124000BB002808BA002708B900C001BF01103050
:10125000BE008230BD008A1122218A157A08AA00B8
:101260007908A9007808A8007708A7003930BA00E3
:101270008A1158208A15FA30BB008A1144208A1539
:101280006F29831688178312881F6F292F30AF00AC
:101290002E08BD002D08BC002C08BB002B08BA008E
:1012A000C101C001BF01BE018A116E208A15031D54
:1012B00065292A08AE002908AD002808AC002708D7
:1012C000AB00AA01A901A801A7012F30BA008A1119
:1012D00058208A15FA30BB008A1144208A158316DB
:1012E000081083120810831688108312881483163E
:1012F00008168312081EE0292A08BD002908BC0030
:101300002808BB002708BA00C101C001BF01BE0107
:101310008A116E208A15031DA3292E08BD002D08F1
:10132000BC002C08BB002B08BA00C101C001BF01E2
:10133000BE018A116E208A15031DA3290C30BA0044
:101340008A1158208A152A08BC002908BB002808E1
:10135000BA002708B900C001BF012030BE008230AA
:10136000BD008A11AD208A157A08AA007908A90063
:101370007808A8007708A70083102A08BC0029086D
:10138000BB002808BA002708B900C001BF01BE0190
:101390008130BD008A1122218A157A08AA007908B5
:1013A000A9007808A8007708A7003430BA008A118D
:1013B00058208A15FA30BB008A1144208A15E22A87
:1013C000831688168312881E4A2A2A08BD00290817
:1013D000BC002808BB002708BA00C101C001BF013A
:1013E000BE018A116E208A15031D0C2A2E08BD002D
:1013F0002D08BC002C08BB002B08BA00C101C0019D
:10140000BF01BE018A116E208A15031D0C2A0C3003
:10141000BA008A1158208A152A08BC002908BB0086
:101420002808BA002708B900C001BF012030BE005B
:101430008230BD008A11AD208A157A08AA00790889
:10144000A9007808A8007708A70083102A08BC0024
:101450002908BB002808BA002708B900C001BF014D
:101460002030BE008130BD008A1122218A157A0801
:10147000AA007908A9007808A8007708A7003530E5
:10148000BA008A1158208A15FA30BB008A1144200C
:101490008A15E22A831608178312081FB42A2A081D
:1014A000BD002908BC002808BB002708BA00C101FC
:1014B000C001BF01BE018A116E208A15031D762A64
:1014C0002E08BD002D08BC002C08BB002B08BA005C
:1014D000C101C001BF01BE018A116E208A15031D22
:1014E000762A0C30BA008A1158208A152A08BC00C6
:1014F0002908BB002808BA002708B900C001BF01AD
:101500002030BE008230BD008A11AD208A157A08D5
:10151000AA007908A9007808A8007708A700831016
:101520002A08BC002908BB002808BA002708B9000F
:10153000C001BF014030BE008130BD008A112221B0
:101540008A157A08AA007908A9007808A8007708FF
:10155000A7003630BA008A1158208A15FA30BB002D
:101560008A1144208A15E22A831688178312881F5D
:10157000E22A2A30AF002E08BD002D08BC002C083E
:10158000BB002B08BA00C101C001BF01BE018A1116
:101590006E208A15031DD82A2A08AE002908AD003E
:1015A0002808AC002708AB00AA01A901A801A701DF
:1015B0002A30BA008A1158208A15FA30BB008A11E5
:1015C00044208A1583168810831288108316081108
:1015D00083120815831608168312081E532B2A0837
:1015E000BD002908BC002808BB002708BA00C101BB
:1015F000C001BF01BE018A116E208A15031D162B82
:101600002E08BD002D08BC002C08BB002B08BA001A
:10161000C101C001BF01BE018A116E208A15031DE0
:10162000162B0C30BA008A1158208A152A08BC00E3
:101630002908BB002808BA002708B900C001BF016B
:101640002030BE008230BD008A11AD208A157A0894
:10165000AA007908A9007808A8007708A7008310D5
:101660002A08BC002908BB002808BA002708B900CE
:10167000C001BF01BE017F30BD008A1122218A1541
:101680007A08AA007908A9007808A8007708A700B6
:101690003130BA008A1158208A15FA30BB008A11FD
:1016A00044208A15542C831688168312881EBC2B5E
:1016B0002A08BD002908BC002808BB002708BA007A
:1016C000C101C001BF01BE018A116E208A15031D30
:1016D0007F2B2E08BD002D08BC002C08BB002B085A
:1016E000BA00C101C001BF01BE018A116E208A1576
:1016F000031D7F2B0C30BA008A1158208A152A0846
:10170000BC002908BB002808BA002708B900C0019E
:10171000BF012030BE008230BD008A11AD208A1585
:101720007A08AA007908A9007808A8007708A70015
:1017300083102A08BC002908BB002808BA00270823
:10174000B900C001BF01BE018030BD008A11222155
:101750008A157A08AA007908A9007808A8007708ED
:10176000A7003230BA008A1158208A15FA30BB001F
:101770008A1144208A15542C831608178312081FD7
:10178000262C2A08BD002908BC002808BB00270811
:10179000BA00C101C001BF01BE018A116E208A15C5
:1017A000031DE82B2E08BD002D08BC002C08BB0033
:1017B0002B08BA00C101C001BF01BE018A116E2011
:1017C0008A15031DE82B0C30BA008A1158208A159F
:1017D0002A08BC002908BB002808BA002708B9005D
:1017E000C001BF012030BE008230BD008A11AD2093
:1017F0008A157A08AA007908A9007808A80077084D
:10180000A70083102A08BC002908BB002808BA00DA
:101810002708B900C001BF014030BE008030BD00C4
:101820008A1122218A157A08AA007908A900780865
:10183000A8007708A7003330BA008A1158208A150B
:10184000FA30BB008A1144208A15542C831688175D
:101850008312881F542C2D30AF002E08BD002D0898
:10186000BC002C08BB002B08BA00C101C001BF019D
:10187000BE018A116E208A15031D4A2C2A08AE006B
:101880002908AD002808AC002708AB00AA01A9016F
:10189000A801A7012D30BA008A1158208A15FA3004
:1018A000BB008A1144208A1583160811831208117F
:1018B0008316881183128815831608168312081E52
:1018C000782CAA01A901A801A701AE01AD01AC01C4
:1018D000AB010C30BA008A1158208A153030BA009A
:1018E0008A1158208A15FA30BB008A1144208A15C3
:1018F000831688168312881EC82C2A08BD00290862
:10190000BC002808BB002708BA00C101C001BF0104
:10191000BE018A116E208A15031DA42C2E08BD005D
:101920002D08BC002C08BB002B08BA00C101C00167
:10193000BF01BE018A116E208A15031DA42C0C3034
:10194000BA008A1158208A152A08BC002908BB0051
:101950002808BA002708B900C001BF012030BE0026
:101960008230BD008A11AD208A157A08AA00790854
:10197000A9007808A8007708A7003030BA008A11BB
:1019800058208A15FA30BB008A1144208A15D02EBF
:10199000831608178312081F9E2E0C30BA008A1176
:1019A00058208A152F082B3A0319E02C063A031900
:1019B000FD2C073A03191A2D053A0319362D522D1D
:1019C00083102E08BC002D08BB002C08BA002B0881
:1019D000B9002A08C0002908BF002808BE0027084F
:1019E000BD008A1122218A157A08AE007908AD005F
:1019F0007808AC007708AB00522D83142E08BC0089
:101A00002D08BB002C08BA002B08B9002A08C0001A
:101A10002908BF002808BE002708BD008A1122211E
:101A20008A157A08AE007908AD007808AC0077080E
:101A3000AB00522D2E08BC002D08BB002C08BA00AC
:101A40002B08B9002A08C0002908BF002808BE00DA
:101A50002708BD008A11AD208A157A08AE007908E2
:101A6000AD007808AC007708AB00522D2E08BC0002
:101A70002D08BB002C08BA002B08B9002A08C000AA
:101A80002908BF002808BE002708BD008A1163226C
:101A90008A157A08AE007908AD007808AC0077089E
:101AA000AB00522DAA01A901A801A701B301013081
:101AB000B4003408B9000A30BA008A112D238A15FF
:101AC000BB017808BA008A1152238A157A08BD0032
:101AD0007908BC007808BB007708BA002E08C1005E
:101AE0002D08C0002C08BF002B08BE008A116E20F4
:101AF0008A1503187D2D031D872D3408B9000A307F
:101B0000BA008A112D238A157808B400592D2E08A1
:101B1000B8002D08B7002C08B6002B08B500340813
:101B2000003C0318042EBB013408BA008A1152236A
:101B30008A153808BC003708BB003608BA003508DB
:101B4000B9007A08C0007908BF007808BE0077089D
:101B5000BD008A1163228A157A08BC007908BB008F
:101B60007808BA007708B9008A116F238A157808B7
:101B7000B3003408B9003308BA008A112D238A153E
:101B80007808BB01BA008A1152238A1583143808D9
:101B9000BC003708BB003608BA003508B9007A081F
:101BA000C0007908BF007808BE007708BD008A1120
:101BB00022218A157A08B8007908B7007808B6009B
:101BC0007708B50030303307B900BA008A115820C1
:101BD0008A153408B9000A30BA003A08F801390207
:101BE0000318F52D3908F700012EF7010830BB0066
:101BF000B90DF70D3A0877020318F700F80DBB0B83
:101C0000F82D7808B4008F2D2F082F3C031D982E37
:101C10002C30BA008A1158208A153808BC003708C1
:101C2000BB003608BA003508B900C001BF01483012
:101C3000BE008530BD008A11AD208A157A08B80033
:101C40007908B7007808B6007708B5003808BC00F6
:101C50003708BB003608BA003508B900C001BF011B
:101C60002030BE008230BD008A1163228A157A08B6
:101C7000BC007908BB007808BA007708B9008A115F
:101C80006F238A157808B3000A30B9003308BA0008
:101C90008A112D238A157808BB01BA008A115223B4
:101CA0008A1583143808BC003708BB003608BA0010
:101CB0003508B9007A08C0007908BF007808BE006E
:101CC0007708BD008A1122218A157A08B8007908A0
:101CD000B7007808B6007708B50030303307B90090
:101CE000BA008A1158208A153808BC003708BB0092
:101CF0003608BA003508B900C001BF01BE017F3007
:101D0000BD008A1163228A157A08BC007908BB00DD
:101D10007808BA007708B9008A116F238A15780805
:101D2000B30030303307B900BA008A1158208A1541
:101D3000FA30BB008A1144208A15D02E83168817EA
:101D40008312881FD02E2B30AF002E08BD002D0827
:101D5000BC002C08BB002B08BA00C101C001BF01A8
:101D6000BE018A116E208A15031DC22E2A08AE00FC
:101D70002908AD002808AC002708AB00AA01A9017A
:101D8000A801A701AA01A901A801A7012B30BA0047
:101D90008A1158208A15FA30BB008A1144208A150E
:0E1DA00083168811831288118A110A12E32B10
:02400E003A3F37
:00000001FF
;PIC16F877A
;CRC=E0C9  CREATED="04-Jan-21 02:42"
