:1000000000308A007E2800002208003A03192428C4
:10001000013A03192A28033A03193028013A03192F
:100020003628073A03193C28013A03194228033AB3
:1000300003194828013A03194E280F3A0319542886
:10004000013A03195A28602883168801C0308312A8
:100050008800652883168801F93083128800652896
:1000600083168801A43083128800652883168801CE
:10007000B030831288006528831688019930831276
:1000800088006528831688019230831288006528CD
:1000900083168801823083128800652883168801C0
:1000A000F830831288006528831688018030831217
:1000B000880065288316880190308312880065289F
:1000C00083168801FF30831288008A110A12AE2835
:1000D000233084008313000803197B280630F800BE
:1000E000F701F70B7128F80B70287B30F700F70B3E
:1000F0007728800B6E288A110A12B32803081F394B
:10010000830083161F149F141F159F1107309C0036
:1001100083131F149F141F159F150030F8008312BE
:100120001F08C73978049F000030831688008801B3
:10013000FF3083128800831609148312091CB72824
:100140002030F700F70BA228A5280000A101210804
:10015000093C031CB7282108A20004280230A20091
:10016000FA30A3006828A20BB028A10AA72883169A
:0C0170008801FF30831288009B28630088
:02400E00323F3F
:00000001FF
;PIC16F877A
;CRC=7351  CREATED="19-Nov-20 21:04"
