:1000000002308A00092A00004336EF3965322100A8
:100010008C27F032EE1000018C21EC37F332E41023
:1000200000002630840083130008031924280630BA
:10003000F800F701F70B1A28F80B19287B30F700A6
:10004000F70B2028800B172808002C182928861168
:100050002A288615831686118312AC1831280612B9
:10006000322806168316061283122C193928861296
:100070003A288616831686128312AC194128061375
:1000800042280617831606130000831206158316EE
:1000900006110230F700F70B4B284E2800008312A0
:1000A00006118316061183120800AD01831686150A
:1000B0000030831286190130AD0483160616003015
:1000C0008312061A0130F7000310F70D7708AD040C
:1000D0008316861600308312861A0130F700F70D5A
:1000E000F70DFC30F7057708AD04831606170030CE
:1000F0008312061B0130F700F70DF70DF70DF830EE
:10010000F7057708AD042D08F800080083160611DE
:100110000610861083120610831606108615061622
:100120008616061783128614831686100000831223
:100130000615831606110000831255207808AC00BE
:100140000611831606110000831206158316061188
:10015000A928AA280000831255207808AB000611B0
:1001600083160611861106128612061383122C0EB0
:10017000F700F030F70577082B04F8007808AB009B
:10018000AB1FC42883168E28A908031DC928061092
:10019000CA280614831606100000831286108316E0
:1001A00086100000831206118316061183122A0E90
:1001B000AB000F30AB052B08AC0025202A080F3907
:1001C000AB00AC00252008002830A2000C30A300B2
:1001D0000130A4000630A500061183160611831213
:1001E0000610831606108312861083168610861159
:1001F0000612861206130611061086100F3083129F
:10020000A60011200130A1002108033C031C102985
:100210000330AC0025200530A6001120A10A0429D6
:100220000230AC0025200530A6001120A1012108D4
:10023000033C031C27292230210784008313000874
:10024000A600A9012608AA008620A10A17298A115A
:100250000A122D2A260B2D2930294030A7003129DA
:10026000A70101302502A70727088038A800A901A7
:100270002808AA00862008002408073A03194A29FA
:100280000B3A03194F29063A03195729023A031961
:100290005D2962290130A500A6002A216729A9014C
:1002A0000130AA0086200230A60011206729013003
:1002B000A5000230A6002A216729A9011030AA0052
:1002C000862067290130A9002408AA00862008009A
:1002D0000B08A1008B13831603178C170C14000056
:1002E000000083120313A11B8B1703170C087F391F
:1002F0000319BC290313A10003170D080313A2005F
:1003000003170F080313A3002108A4003C212208AF
:1003100003178D000313230803178F0003130B0823
:10032000A4008B13831603178C170C140000000015
:1003300083120313A41B8B1703170C0D0E0D7F39AB
:100340000319BC290313A10003170D080313A2000E
:1003500003170F080313A3002108A4003C2122085F
:1003600003178D000313230803178F008D0A031949
:100370008F0A031368290317031308000330A2022E
:10038000031CCC2922308400831300080319CC29D4
:10039000CA29CA29800BC929080083168813831229
:1003A00088170130A60011200530A1006D30A20091
:1003B000BE21A10BD629831688138312881312300D
:1003C000A60011200230A100E030A200BE21A10B46
:1003D000E429080083168813831288170230A600C8
:1003E00011200530A1006D30A200BE21A10BF32920
:1003F00083168813831288131130A600112002304F
:10040000A100E030A200BE21A10B012A8A110A122C
:10041000472A03081F398300FF30A00083161F14EA
:100420009F141F159F1107309C0083130030860016
:10043000860183128601803083168800880183122A
:1004400088011230831687008312A0000030A000BC
:100450008316870183128701E428043003178D0077
:1004600000308F00031368218316881083128814CC
:10047000CD21A01420088316870083128718572ADD
:100480002030F700F70B422A452A0000EA2983169C
:1004900008108312081483168810831288100830FD
:1004A00003178D0000308F0003136821742A201673
:1004B0002008831687008312071A742A2030F70059
:1004C000F70B602A632A0000CD21831608108312DF
:1004D000081083168810831288140C3003178D00BF
:0C04E00000308F0003136821392A6300EC
:02400E003A3F37
:00000001FF
;PIC16F877A
;CRC=FDDE  CREATED="03-Feb-21 17:46"
