:1000000000308A0063280000213084008313000838
:10001000031917280630F800F701F70B0D28F80B25
:100020000C287B30F700F70B1328800B0A280800F8
:100030000330A202031C2628223084008313000808
:100040000319262824282428800B23280800831637
:100050008813831288170130A10004200530A10005
:100060006D30A2001820A10B30288316881383124C
:1000700088131230A10004200230A100E030A20059
:100080001820A10B3E2808008316881383128817B6
:100090000230A10004200530A1006D30A20018201C
:1000A000A10B4D2883168813831288131130A100E9
:1000B00004200230A100E030A2001820A10B5B2830
:1000C0008A110A128F2803081F398300FF30A0000D
:1000D00083161F149F141F159F1107309C00831354
:1000E00080308800880183128801123083168700CF
:1000F0008312A0000030A0008316870183128701BD
:100100002720A014200883168700831287189028C0
:100110002030F700F70B8A288D28000044289E28FD
:1001200020162008831687008312071A9E28203085
:10013000F700F70B99289C280000272081286300EE
:02400E003A3F37
:00000001FF
;PIC16F877A
;CRC=811C  CREATED="02-Jan-21 03:39"
