:1000000002308A00632A00008C04CD37F437721066
:10001000C3376E3AF2376C000C28D7263A10A53A4F
:1000200000002930840083130008031924280630B7
:10003000F800F701F70B1A28F80B19287B30F700A6
:10004000F70B2028800B17280800300EF039F70036
:100050000F30080577048800000008140230F7000C
:10006000F70B302833280000081008000808F700B4
:10007000080E0F39F80008008316081088100811C0
:10008000831288100F3083160805F0388800831219
:10009000081500000814000036207808B000081089
:1000A0000000081453285428000036207808AF00B8
:1000B00008100F308316080588008312300EF700F1
:1000C000F030F70577082F04F8007808AF00AF1B71
:1000D00042282D1C88102D188814000008110000DB
:1000E00008102E0EAF000F30AF052F08B0002520EE
:1000F0002E080F39AF00B000252008002830A500D9
:100100000C30A6000130A7000630A80008108810A7
:1001100008110F3083160805880008108810081190
:100120000F308312A90011200130A4002408033CE1
:10013000031CA2280330B00025200530A90011209F
:10014000A40A96280230B00025200530A90011200D
:10015000A4012408033C031CB9282530240784008B
:1001600083130008A900AD012908AE003C20A40AB1
:10017000A9288A110A12AB2A2A0BBF28C2284030AC
:10018000AB00C328AB0101302902AB072B08803834
:10019000AC00AD012C08AE003C2008002808073A4E
:1001A0000319DC280B3A0319E128063A0319E92858
:1001B000023A0319EF28F4280130A900AA00BC2054
:1001C000F928AD010130AE003C200230A900112019
:1001D000F9280130A9000230AA00BC20F928AD019D
:1001E0001030AE003C20F9280130AD002808AE00E8
:1001F0003C2008002708F8012602031802292608D7
:10020000F7000E29F7010830A800A60DF70D270802
:1002100077020318F700F80DA80B052908008030B5
:10022000A000A100A200A311230883168700831257
:1002300087152312230883168700831207122208CA
:100240009500831686158312861D2B29FA30A90086
:100250001120082A4E29831686148312861C3D29F4
:100260006430A90011202208E53C031C3A2919300A
:10027000A2073C29FF30A2004E29831606158312DF
:10028000061D4E296430A90011202208323C0318B3
:100290004C291930A2024E293230A2001F151F1915
:1002A0004F291E08A0000A302107200203185F29E9
:1002B0000A302102200203195F2903186C29200843
:1002C000A1002008A2002208323C03186A29193034
:1002D000A2026C293230A200220895000C300317CC
:1002E0008D0000308F00031006300313A4000B08AC
:1002F000A5008B13831603178C170C140000000045
:1003000083120313A51B8B170318AE2903170C08C0
:100310007F390313A50003170D080313A600031765
:100320000F080313A7002508A800CE2026080317EE
:100330008D000313270803178F0003130B08A80071
:100340008B13831603178C170C1400000000831204
:100350000313A81B8B17A40BAE29CD2903170C0D73
:100360000E0D7F390313A50003170D080313A60014
:1003700003170F080313A7002508A800CE2026089E
:1003800003178D000313270803178F008D0A031925
:100390008F0A03100313A40B77292208A4001B3033
:1003A000A5002408A6006430A700FA207708A4005E
:1003B00078083030031DE329A51CEA29A519EA298C
:1003C000251A2030E629A51125122514F8077808EA
:1003D000A800CE202408A6000A30A700FA2077083B
:1003E000A40078083030031DFB29A519FF29251C1E
:1003F000FF29251A2030F8077808A800CE203030D1
:10040000A4072408A800CE206430A90011202129C7
:100410008A110A12C12A0B08A4008B138316031732
:100420008C170C140000000083120313A41B8B17FD
:1004300003170C087F3903195F2A0313A40003175D
:100440000D080313A50003170F080313A6002408C3
:10045000A800CE20250803178D00031326080317D4
:100460008F0003130B08A7008B13831603178C1739
:100470000C140000000083120313A71B8B17031733
:100480000C0D0E0D7F3903195F2A0313A400031707
:100490000D080313A50003170F080313A600240873
:1004A000A800CE20250803178D0003132608031784
:1004B0008F008D0A03198F0A03130B2A03170313E6
:1004C0008A110A12C82A03081F3983008030A0004D
:1004D000A100A200FF30A30083161F149F141F1554
:1004E0009F1107309C0083130030F80006388312F8
:1004F0009200FF3083169200831223112308831683
:100500008700831207110C30970083161F17831280
:100510001F179F1383169F1383121F1483161F1018
:100520009F141F159F1501308500483086008601F5
:10053000831286014030831687008312A3000030A7
:10054000A300831687018312870183168800880120
:10055000831288017E280030F8001F08C73978040C
:100560009F002030F700F70BB32AB62A0000950150
:10057000831686158312861DC12AFA30A900112020
:100580000F29043003178D0000308F0003130B2A4E
:100590009501A31123088316870083128711231264
:1005A000230883168700831207121430A900112034
:0405B000B82A630002
:02400E003A3F37
:00000001FF
;PIC16F877A
;CRC=1FBD  CREATED="28-Jan-21 16:30"
