:020000040000FA
:1000000083160313FF3086008801831203138801CF
:1000100062200330A3000030A400861812282B2091
:1000200032200D28881108144F20A40AA40B0D2893
:10003000081088144F20A40AA40B0D288810081556
:100040004F20A40AA40B0D28081188154F20A40ADC
:10005000A40B0D28122808108810081188110030F0
:10006000A4000800061A4920861B372008006920D2
:1000700008148814081588155820081088100811CD
:1000800088115820A30B37280330A3000530A400A3
:100090000800861B3720A401861C49280800A00BF5
:1000A0004F28A10B4F283220A20B4F2862200800B6
:1000B000061A4920A00B5828A10B5828A20B582833
:1000C000692008000B30A200E730A1002D30A0000D
:1000D00008000630A2007430A1001630A00008000D
:0400E00000340034B4
:02400E00323F3F
:00000001FF
