:1000000000308A00AA2800003030840083130008E2
:10001000031917280630F800F701F70B0D28F80B25
:100020000C287B30F700F70B1328800B0A280800F8
:100030008030A000A100A200AF112F088316870016
:10004000831287152F122F08831687008312071239
:1000500022089500C830B00004208316861583124C
:10006000861D3728FA30B0000420A7285A288316A6
:1000700086148312861C49286430B00004202208AC
:10008000E53C031C46281930A2074828FF30A2008F
:100090005A28831606158312061D5A286430B000AC
:1000A00004202208283C031858281930A2025A2894
:1000B0001430A2001F151F195B281E08A000143061
:1000C0002107200203186B28143021022002031993
:1000D0006B28031875282008A1002008A200220818
:1000E000133C031C75281430A20022089500220836
:1000F000193C031897282208B0001930B1003108C4
:10010000F8013002031887283008F7009328F70118
:100110000830B200B00DF70D310877020318F70070
:10012000F80DB20B8A2801307802A3009828A301A9
:1001300024302307840083130008B000831688014D
:100140008312300888006430B00004202D288A1102
:100150000A121F2903081F3983008030A000A10064
:10016000A200A301FF30AF0083161F149F141F15B8
:100170009F1107309C008313C0308312A400F93014
:10018000A500A430A600B030A7009930A800923096
:10019000A9008230AA00F830AB008030AC0090306B
:1001A000AD00FF30AE000030F80006389200FF309E
:1001B0008316920083122F112F0883168700831253
:1001C00007110C30970083161F1783121F179F13F8
:1001D00083169F1383121F1483161F109F141F155D
:1001E0009F15013085004830860086018312860104
:1001F0004030831687008312AF000030AF008316B3
:10020000870183128701831688008801FF308312DB
:1002100088000030F8001F08C73978049F0020309C
:10022000F700F70B11291429000095018316861594
:100230008312861D1F29FA30B00004201828831667
:100240008801FF30831288009501AF112F088316B3
:100250008700831287112F122F08831687008312BD
:0C02600007121430B000042016296300BF
:02400E003A3F37
:00000001FF
;PIC16F877A
;CRC=8BAC  CREATED="18-Dec-20 04:09"
