:020000040000FA
:1000000083160313FF3086008801831203138801CF
:100010003B200330A3000130A400861812282B20B7
:1000200041200D28881108143220A40AA40B0D28A1
:10003000081088143220A40AA40B0D288810081573
:100040003220A40AA40B0D28081188153220A40A16
:10005000A40B0D28122808108810081188110130EF
:10006000A4000800A00B3228A10B32284120A20BCB
:1000700032283B2008000A30A200C830A100C83056
:10008000A000061A5720861B462008000814881472
:10009000081588155C2008108810081188115C204C
:1000A000A30B46280330A3000530A4000800861BDC
:1000B0004620861C57280800061A5720A00B5C28EB
:0C00C000A10B5C28A20B5C283B20080070
:0400CC0000340034C8
:02400E00B23FBF
:00000001FF
